:100000000C9434000C943E000C943E000C943E0082
:100010000C943E000C943E000C943E000C943E0068
:100020000C943E000C943E000C943E000C943E0058
:100030000C943E000C943E000C943E000C943E0048
:100040000C943E000C943E000C943E000C943E0038
:100050000C943E000C943E000C943E000C943E0028
:100060000C943E000C943E0011241FBECFEFD8E04C
:10007000DEBFCDBF0E9440000C9455010C940000DF
:100080008FEF8AB9209A1BB885B115B884E88093A0
:100090007A00EAE7F0E0CCE7D0E071ECA8E7B0E066
:1000A00030E011E062EC808180648083788380811D
:1000B00086FDFDCF8D919C911197AC014D5A524018
:1000C0004A31510558F4222329F08BB11BB85C9AB0
:1000D000212F64C08BB11BB8212F60C0AC014E59D9
:1000E00052404F30510538F48BB11BB88BB1896049
:1000F0008BB9232F53C0AC014A58524044315105AB
:1001000038F48BB11BB88BB18B608BB9232F46C0F1
:10011000AC01415752404931510538F48BB11BB8FD
:100120008BB18D608BB9232F39C0813742E09407A2
:1001300038F48BB11BB88BB18F608BB9232F2EC0D5
:10014000AC01475C52404F30510528F48BB11BB8CD
:10015000589A232F23C0AC01465D524044315105CB
:1001600038F48BB11BB88BB183608BB9232F16C0C9
:10017000AC014A5E52404F30510538F48BB11BB888
:100180008BB185608BB9232F09C0893F924030F035
:100190008BB11BB88BB187608BB9232F80818064B2
:1001A00080836883808186FDFDCF8D919C9111971E
:1001B000AC01485A52404A31510558F4222329F0E3
:1001C0008BB11BB85C9A212F6ECF8BB11BB8212F3E
:1001D0006ACFAC01495952404F30510530F48BB1D0
:1001E0001BB8289A5D9A232F5ECFAC014558524028
:1001F0004431510540F48BB11BB8289A8BB180660D
:100200008BB9232F50CFAC014C5652404931510588
:1002100040F48BB11BB8289A8BB1806A8BB9232F1D
:1002200042CF8C3642E0940740F48BB11BB8289A39
:100230008BB1806E8BB9232F36CFAC01475C524017
:100240004F30510538F48BB11BB885B115B85D9AA4
:10025000232F29CFAC01465D52404431510548F46B
:100260008BB11BB885B115B88BB180668BB9232FC4
:100270001ACFAC014A5E52404F30510548F48BB161
:100280001BB885B115B88BB1806A8BB9232F0BCF02
:10029000893F924008F407CF8BB11BB885B115B8E0
:0E02A0008BB1806E8BB9232FFECEF894FFCF6A
:00000001FF
