:100000000C9434000C943E000C943E000C943E0082
:100010000C943E000C943E000C943E000C943E0068
:100020000C943E000C943E000C943E000C943E0058
:100030000C943E000C943E000C943E000C943E0048
:100040000C943E000C943E000C943E000C943E0038
:100050000C943E000C943E000C943E000C943E0028
:100060000C943E000C943E0011241FBECFEFD8E04C
:10007000DEBFCDBF0E9440000C9433010C94000001
:100080008FEF8AB9209A1BB885B115B884E88093A0
:100090007A00EAE7F0E0CCE7D0E052E0A8E7B0E091
:1000A00041E08081806480835883808186FDFDCF1C
:1000B0008D919C9111979C0124593109253031056E
:1000C00020F48BB11BB85C9A57C09C0120593109B0
:1000D0002430310530F48BB11BB88BB189608BB9FA
:1000E0004BC09C012C5831092430310530F48BB1C0
:1000F0001BB88BB18B608BB93FC09C01285831096C
:100100002430310530F48BB11BB88BB18D608BB9C5
:1001100033C08838910530F48BB11BB88BB18F6038
:100120008BB92AC09C01295931092430310520F4AA
:100130008BB11BB8589A20C09C012D59310924302D
:10014000310530F48BB11BB88BB183608BB914C00F
:100150009C01215A31092430310530F48BB11BB890
:100160008BB185608BB908C0853A910528F08BB1B9
:100170001BB88BB187608BB9808180648083488392
:10018000808186FDFDCF8D919C9111979C01245912
:1001900031092530310520F48BB11BB85C9A81CF31
:1001A0009C01205931092430310528F48BB11BB84A
:1001B000289A5D9A76CF9C012C583109243031055C
:1001C00038F48BB11BB8289A8BB180668BB969CF94
:1001D0009C01285831092430310538F48BB11BB803
:1001E000289A8BB1806A8BB95CCF8838910538F436
:1001F0008BB11BB8289A8BB1806E8BB952CF9C0102
:10020000295931092430310530F48BB11BB885B13F
:1002100015B85D9A46CF9C012D593109243031051E
:1002200040F48BB11BB885B115B88BB180668BB922
:1002300038CF9C01215A31092430310540F48BB16B
:100240001BB885B115B88BB1806A8BB92ACF853AB6
:10025000910508F426CF8BB11BB885B115B88BB1C9
:0A026000806E8BB91ECFF894FFCF1B
:00000001FF
