S01700004763634170706C69636174696F6E322E737265635A
S11300000C9434000C943E000C943E000C943E007E
S11300100C943E000C943E000C943E000C943E0064
S11300200C943E000C943E000C943E000C943E0054
S11300300C943E000C943E000C943E000C943E0044
S11300400C943E000C943E000C943E000C943E0034
S11300500C943E000C943E000C943E000C943E0024
S11300600C943E000C943E0011241FBECFEFD8E048
S1130070DEBFCDBF0E9440000C9433010C940000FD
S11300808FEF8AB9209A1BB885B115B884E880939C
S11300907A00EAE7F0E0CCE7D0E052E0A8E7B0E08D
S11300A041E08081806480835883808186FDFDCF18
S11300B08D919C9111979C01235931092730310569
S11300C020F48BB11BB85C9A57C09C012D583109A0
S11300D02630310530F48BB11BB88BB189608BB9F4
S11300E04BC09C01275831092630310530F48BB1BF
S11300F01BB88BB18B608BB93FC09C01215831096F
S11301002630310530F48BB11BB88BB18D608BB9BF
S113011033C08138910530F48BB11BB88BB18F603B
S11301208BB92AC09C012A5931092630310520F4A3
S11301308BB11BB8589A20C09C01205A3109263033
S1130140310530F48BB11BB88BB183608BB914C00B
S11301509C01265A31092630310530F48BB11BB885
S11301608BB185608BB908C08C3A910528F08BB1AE
S11301701BB88BB187608BB980818064808348838E
S1130180808186FDFDCF8D919C9111979C0123590F
S113019031092730310520F48BB11BB85C9A81CF2B
S11301A09C012D5831092630310528F48BB11BB838
S11301B0289A5D9A76CF9C0127583109263031055B
S11301C038F48BB11BB8289A8BB180668BB969CF90
S11301D09C01215831092630310538F48BB11BB804
S11301E0289A8BB1806A8BB95CCF8138910538F439
S11301F08BB11BB8289A8BB1806E8BB952CF9C01FE
S11302002A5931092630310530F48BB11BB885B138
S113021015B85D9A46CF9C01205A31092630310524
S113022040F48BB11BB885B115B88BB180668BB91E
S113023038CF9C01265A31092630310540F48BB160
S11302401BB885B115B88BB1806A8BB92ACF8C3AAB
S1130250910508F426CF8BB11BB885B115B88BB1C5
S10D0260806E8BB91ECFF894FFCF17
S9030000FC
